:10000000FDC000001CC100001AC1000018C10000A2
:1000100016C1000014C1000012C1000010C1000090
:100020000EC100000CC100000AC1000008C10000A0
:1000300006C1000004C1000002C1000000C10000B0
:10004000FEC00000FCC00000FAC00000F8C00000C4
:10005000F6C00000F4C00000F2C00000F0C00000D4
:10006000EEC00000ECC00000EAC00000E8C00000E4
:10007000E6C00000E4C00000E2C00000E0C00000F4
:10008000DEC00000DCC00000DAC00000D8C0000004
:10009000D6C00000D4C00000D2C000000C94770A83
:1000A0000C94EA0A0C945D0B0C94D00BC8C00000B1
:1000B000C6C00000C4C00000C2C00000C0C0000034
:1000C000BEC00000BCC00000BAC00000B8C0000044
:1000D000B6C00000B4C00000B2C00000B0C0000054
:1000E000AEC00000ACC00000AAC00000A8C0000064
:1000F000A6C00000A4C00000A2C00000A0C0000074
:100100009EC000009CC000009AC0000098C0000083
:1001100096C0000094C0000092C000000C94AB0890
:100120000C941E090C9491090C94040A88C00000D8
:1001300086C0000084C0000082C0000080C00000B3
:100140007EC000007CC000007AC0000078C00000C3
:1001500076C0000074C0000072C0000070C00000D3
:100160006EC000006CC000006AC0000068C00000E3
:1001700066C0000064C0000062C0000060C00000F3
:100180005EC000005CC000005AC0000058C0000003
:1001900056C0000054C0000052C0000050C0000013
:1001A0004EC000004CC000004AC0000048C0000023
:1001B00046C0000044C0000042C0000040C0000033
:1001C0003EC000003CC000003AC0000038C0000043
:1001D00036C0000034C0000032C0000030C0000053
:1001E0002EC000002CC000002AC0000028C0000063
:1001F00026C0000024C0000022C0000011241FBE41
:10020000CFEFDFE5DEBFCDBF00E00CBF10E2A0E026
:10021000B0E2EEE9FDE200E00BBF02C007900D92F4
:10022000A230B107D9F712E2A2E0B0E201C01D92FC
:10023000AD31B107E1F70E9455160C94CD16E0CE12
:10024000DF93CF930F92CDB7DEB7898389818695EF
:1002500086958695882F90E0C096880F991F829585
:100260009295907F9827807F98270F90CF91DF916C
:100270000895DF93CF930F92CDB7DEB7898389813D
:10028000882F90E09C012770307081E090E0022E72
:1002900002C0880F991F0A94E2F70F90CF91DF9167
:1002A0000895DF93CF9300D00F92CDB7DEB78B8345
:1002B0006C838B81C5DF89839A838C81882341F08D
:1002C0008B81D7DF282F89819A81FC01258307C084
:1002D0008B81CFDF282F89819A81FC012683249688
:1002E000CDBFDEBFCF91DF910895DF93CF93CDB720
:1002F000DEB780E894E8AEE1B0E0BC01CD01CF917B
:10030000DF910895DF93CF930F92CDB7DEB71982B7
:10031000ECDFDC01CB012981222F30E0022E04C06A
:10032000B695A795979587950A94D2F7BC01CD010C
:100330000F90CF91DF910895DF93CF93CDB7DEB7C4
:10034000E1DFDC01CB01BC01CD01CF91DF9108954C
:10035000DF93CF93CDB7DEB7EFDFDC01CB01BC017C
:10036000CD01CF91DF910895DF93CF93CDB7DEB765
:10037000EFDFDC01CB01BC01CD01CF91DF9108950E
:10038000DF93CF930F920F92CDB7DEB789839A8315
:1003900089819A81FC018181882F90E08072907020
:1003A00021E0009709F420E0822F0F900F90CF9169
:1003B000DF910895DF93CF930F920F92CDB7DEB701
:1003C00089839A8389819A81FC018181882F90E0B9
:1003D0008074907021E0009709F420E0822F0F9044
:1003E0000F90CF91DF910895DF93CF930F920F92EB
:1003F000CDB7DEB789839A8389819A8120E4FC0195
:1004000021830F900F90CF91DF910895DF93CF93C9
:1004100000D0CDB7DEB789839A836B8389819A81B7
:100420002B81FC0120832396CDBFDEBFCF91DF91CE
:100430000895DF93CF930F920F92CDB7DEB78983E4
:100440009A8389819A81FC0180810F900F90CF91CE
:10045000DF910895DF93CF9300D0CDB7DEB78983C6
:100460009A836B83000089819A818ADF982F81E0CB
:1004700089278823C1F789819A816B81C7DF0000B2
:1004800089819A8197DF982F81E089278823C1F796
:1004900089819A81A9DF89819A81CBDF2396CDBF9B
:1004A000DEBFCF91DF910895DF93CF930F92CDB749
:1004B000DEB789838BE260E0F4DE88E160E0F1DEA4
:1004C00080EA99E06981C6DF8BE261E0EADE0F90A5
:1004D000CF91DF910895DF93CF930F920F92CDB715
:1004E000DEB742DFDC01CB0120E432E44FE050E034
:1004F000BC01CD010E94AB16DA01C9012AE030E04F
:1005000040E050E0BC01CD010E947816DC01CB0137
:100510002AE030E040E050E0BC01CD010E94AB1683
:10052000DA01C901898389818A8383E060E0B9DEC9
:1005300000009A8181E0992309F480E091509A8328
:100540008823B9F789818A8383E061E0AADE00000D
:100550009A8181E0992309F480E091509A8388235D
:10056000B9F70F900F90CF91DF910895DF93CF935C
:10057000CDB7DEB78FEA98DFCF91DF910895DF9393
:10058000CF930F92CDB7DEB7898389818E3110F476
:100590008EE189838981893210F088E2898381E83C
:1005A00083DF898180958F737FDF89810F90CF9161
:1005B000DF910895DF93CF93CDB7DEB786EA74DF7E
:1005C000CF91DF910895CF92DF92EF92FF920F9338
:1005D0001F93DF93CF9300D000D0CDB7DEB783E079
:1005E00089831A821B821C821D828BE28E8380EAA1
:1005F00099E0F7D39E012A5F3F4FCA80DB80EC80F1
:10060000FD8080EA99E0B901498100E412E42FE01D
:1006100030E035D42696CDBFDEBFCF91DF911F915C
:100620000F91FF90EF90DF90CF900895DF93CF93DD
:10063000CDB7DEB750DFC7DF88E160E032DE80EAA9
:1006400033DFB8DF88EC30DF82EA2EDF8FE22CDF89
:1006500088EF2ADF80E028DF81E226DF88E28FDF73
:1006600085DFCF91DF910895DF93CF930F92CDB7C0
:10067000DEB78FE390E0FC0180818983F894898163
:100680000F90CF91DF910895DF93CF930F92CDB765
:10069000DEB789838FE390E02981FC0120830F90EE
:1006A000CF91DF910895DF93CF9300D0CDB7DEB720
:1006B00080E790E089839A831B820DC089819A81AB
:1006C0002FEFFC01208389819A81019689839A8387
:1006D0008B818F5F8B838B81873080F32396CDBF97
:1006E000DEBFCF91DF910895DF93CF9300D00F92BB
:1006F000CDB7DEB78A839B836C83B6DF89838A811B
:100700009B8180599F4F2A813B8120593F4FF9019E
:100710002081322F2C8120952323FC012083898185
:10072000B3DF2496CDBFDEBFCF91DF910895DF9375
:10073000CF9300D00F92CDB7DEB78A839B836C83B3
:1007400093DF89838A819B8180599F4F2A813B81D6
:1007500020593F4FF90130812C81232BFC0120834C
:10076000898192DF2496CDBFDEBFCF91DF910895BE
:10077000DF93CF930F92CDB7DEB7898389818695BA
:1007800086958695882F90E0C096880F991F829550
:100790009295907F9827807F98270F90CF91DF9137
:1007A0000895DF93CF930F92CDB7DEB78983898108
:1007B000882F90E09C012770307081E090E0022E3D
:1007C00002C0880F991F0A94E2F70F90CF91DF9132
:1007D0000895DF93CF9300D00F92CDB7DEB78B8310
:1007E0006C838B81C5DF89839A838C81882341F058
:1007F0008B81D7DF282F89819A81FC01258307C04F
:100800008B81CFDF282F89819A81FC012683249652
:10081000CDBFDEBFCF91DF910895DF93CF930F92CD
:100820000F92CDB7DEB789839A8389819A81FC01C3
:100830008181882F90E08072907021E0009709F408
:1008400020E0822F0F900F90CF91DF910895DF93DA
:10085000CF930F920F92CDB7DEB789839A838981A8
:100860009A81FC018181882F90E08074907021E052
:10087000009709F420E0822F0F900F90CF91DF9125
:100880000895DF93CF930F920F92CDB7DEB7898390
:100890009A8389819A8120E4FC0121830F900F9033
:1008A000CF91DF910895DF93CF9300D0CDB7DEB71E
:1008B00089839A836B8389819A812B81FC012083B0
:1008C0002396CDBFDEBFCF91DF910895DF93CF9305
:1008D0000F920F92CDB7DEB789839A8389819A816F
:1008E000FC0180810F900F90CF91DF910895DF93ED
:1008F000CF9300D0CDB7DEB789839A836B83000096
:1009000089819A818ADF982F81E089278823C1F71E
:1009100089819A816B81C7DF000089819A8197DF85
:10092000982F81E089278823C1F789819A81A9DFDF
:1009300089819A81CBDF2396CDBFDEBFCF91DF9136
:100940000895DF93CF930F92CDB7DEB789838BE203
:1009500060E03FDF88E160E03CDF80EA99E06981A8
:10096000C6DF8BE261E035DF0F90CF91DF91089514
:10097000DF93CF930F92CDB7DEB789838BE260E030
:1009800028DF88E161E025DF80EA99E06981AFDF57
:1009900088E160E01EDF8BE261E01BDF0F90CF910A
:1009A000DF910895DF93CF930F92CDB7DEB78983A0
:1009B00089818F7089838981806BC3DF0F90CF918C
:1009C000DF910895DF93CF930F92CDB7DEB7898380
:1009D00089818F778983898182958F708061B1DF6A
:1009E00089818F70AEDF0F90CF91DF910895DF93F3
:1009F000CF930F92CDB7DEB7898389818F738983B7
:100A0000898180649EDF0F90CF91DF910895DF93FD
:100A1000CF930F920F92CDB7DEB782E090E2A3D0D2
:100A200005DE80E0E4DF19820FC01A8207C08981E9
:100A30006A8140E070D08A818F5F8A838A818823AF
:100A4000B4F789818F5F89838981843070F30F9037
:100A50000F90CF91DF910895DF93CF9300D000D016
:100A6000CDB7DEB78C836D834E838C8188230CF4E5
:100A700049C08D81803208F047C08D81869586956A
:100A800086958A838D81282F30E08A81482F50E017
:100A900080E090E0841B950B880F991F880F991FA9
:100AA000880F991F280F391F81E090E002C0880F3E
:100AB000991F2A95E2F78B838A816C8144D08983C0
:100AC0008E81882F90E08130910531F08230910540
:100AD00079F0009731F011C099818B81892B89833E
:100AE0000CC08B81982F909589818923898305C0BB
:100AF00099818B818927898300008A816C81498152
:100B00000AD003C0000001C000002696CDBFDEBFA2
:100B1000CF91DF910895DF93CF9300D0CDB7DEB7AB
:100B200089836A834B8389816A814B812FD0898134
:100B300039DF8A8147DF8B811BDF2396CDBFDEBF84
:100B4000CF91DF910895DF93CF930F920F92CDB79E
:100B5000DEB789836A8389816A813DD00F900F90C7
:100B6000CF91DF910895DF93CF930F920F92CDB77E
:100B7000DEB789839A8389819A8180930222909338
:100B800003220F900F90CF91DF910895DF93CF93C1
:100B900000D0CDB7DEB789836A834B8320910222D0
:100BA000309103228981882F90E09695982F88278D
:100BB00097958795AC018A81882F90E0840F951FC7
:100BC000820F931F2B81FC0120832396CDBFDEBFB4
:100BD000CF91DF910895DF93CF930F920F92CDB70E
:100BE000DEB789836A8320910222309103228981B2
:100BF000882F90E09695982F882797958795AC0138
:100C00008A81882F90E0840F951F820F931FFC012B
:100C100080810F900F90CF91DF910895DF93CF9354
:100C2000CDB7DEB72897CDBFDEBF8C836D834E83F3
:100C30002F8338878C81282F30E08E81882F90E099
:100C4000820F931F8138910534F090E88C81292F11
:100C5000281B822F8E838D81869586958695898324
:100C60008D81282F30E08981482F50E080E090E08E
:100C7000841B950B880F991F880F991F880F991F48
:100C8000280F391F81E090E0022E02C0880F991FC3
:100C90000A94E2F78A838E81882309F46CC08F81DD
:100CA000988581309105D9F081309105C8F1823065
:100CB000910509F454C060C09C818E81980F898190
:100CC000692F41DF8B839B818A81892B8B839C8158
:100CD0008E81980F8981692F4B811DDF01C0000033
:100CE00081E09E81992309F480E09E8191509E834A
:100CF000882311F741C09C818E81980F8981692FCB
:100D000022DF8B838A81982F90958B8189238B8317
:100D10009C818E81980F8981692F4B81FCDE01C0F7
:100D2000000081E09E81992309F480E09E8191502A
:100D30009E83882301F720C09C818E81980F898132
:100D4000692F01DF8B839B818A8189278B839C811B
:100D50008E81980F8981692F4B81DDDE01C00000F3
:100D600081E09E81992309F480E09E8191509E83C9
:100D7000882311F701C000002896CDBFDEBFCF91B8
:100D8000DF9108950F931F93DF93CF9300D000D08E
:100D9000CDB7DEB789836A834B832C830D831E8393
:100DA0008C81882359F415C09A818C81980F2D81EC
:100DB0003E818981692F4B8131DF01C0000081E0D4
:100DC0009C81992309F480E09C8191509C83882325
:100DD00059F72696CDBFDEBFCF91DF911F910F91BE
:100DE0000895DF93CF930F920F92CDB7DEB789832B
:100DF0009A8389819A8128E0803A920729F483E0D6
:100E000090E060E171DC36C089819A8128E0803B06
:100E1000920729F483E090E060E266DC2BC08981D0
:100E20009A8129E0803A920729F484E090E060E119
:100E30005BDC20C089819A8129E0803B920729F4FC
:100E400084E090E060E250DC15C089819A812AE05C
:100E5000803A920729F485E090E060E145DC0AC021
:100E600089819A812BE0803A920721F486E090E014
:100E700060E13ADC0F900F90CF91DF910895CF920F
:100E8000DF92EF92FF920F931F93DF93CF93CDB733
:100E9000DEB76397CDBFDEBF8F83988769877A8778
:100EA0004B870C871D872E873F87C88AD98AEA8A95
:100EB000FB8A8C859D85AE85BF8589839A83AB83AC
:100EC000BC838B858D831E828F8198859E012F5FC9
:100ED0003F4FB9010E940F106396CDBFDEBFCF9187
:100EE000DF911F910F91FF90EF90DF90CF900895C9
:100EF000DF93CF930F92CDB7DEB789838981869533
:100F000086958695882F90E0C096880F991F8295C8
:100F10009295907F9827807F98270F90CF91DF91AF
:100F20000895DF93CF930F92CDB7DEB78983898180
:100F3000882F90E09C012770307081E090E0022EB5
:100F400002C0880F991F0A94E2F70F90CF91DF91AA
:100F500008950F931F93DF93CF9300D0CDB7DEB7E3
:100F600089836A837B838981C3DF8C018981D9DF8F
:100F7000482F2A813B81C801642FA901E2D623961C
:100F8000CDBFDEBFCF91DF911F910F910895DF9309
:100F9000CF93CDB7DEB788E760E073E0DADF89E7AB
:100FA00060E073E0D6DF8CE160E073E0D2DF8DE1DA
:100FB00060E471E0CEDF85E26BE170E0CADF89E1D9
:100FC00060E073E0C6DF8BE160E073E0C2DF8BE2DC
:100FD00060E073E0BEDF88E160E073E0BADF83E0E9
:100FE00060E073E0B6DF84E260E071E0B2DFCF91F1
:100FF000DF910895DF93CF930F92CDB7DEB78FE3E4
:1010000090E0FC0180818983F89489810F90CF91D1
:10101000DF910895DF93CF930F92CDB7DEB7898329
:101020008FE390E02981FC0120830F90CF91DF9125
:101030000895DF93CF930F92CDB7DEB7898389816F
:10104000282F30E082E0B901D6D60F90CF91DF9102
:101050000895DF93CF9300D0CDB7DEB78A839B830B
:10106000C9DF89838A819B81895E9D4DFC018081D6
:10107000282F2F5F8A819B81895E9D4DFC012083F3
:101080008981C8DF2396CDBFDEBFCF91DF91089560
:10109000DF93CF9300D00F92CDB7DEB78B839C83C5
:1010A0008B819C8181309105F1F08130910520F098
:1010B0008230910579F145C081E2BBDF882F90E055
:1010C00089839A8389819A81982F882789839A8333
:1010D00080E2AFDF882F90E029813A81822B932B29
:1010E00089839A8330C085E2A4DF882F90E08983CA
:1010F0009A8389819A81982F882789839A8384E2A9
:1011000098DF882F90E029813A81822B932B898365
:101110009A8319C08FE28DDF882F90E089839A83AC
:1011200089819A81982F882789839A838EE281DF2B
:10113000882F90E029813A81822B932B89839A838F
:1011400002C019821A8289819A812496CDBFDEBF9E
:10115000CF91DF9108951F920F920FB60F920090DA
:101160003B000F9211242F933F934F935F936F9304
:101170007F938F939F93AF93BF93EF93FF93DF93EF
:10118000CF9300D00F92CDB7DEB7209105223091DA
:10119000062280E092E089839A8381E08B831C821F
:1011A0008B81882F90E083709070009739F48C8148
:1011B0008E5F8C838B81869586958B838B81882F20
:1011C00090E081709070009719F48C818F5F8C8310
:1011D00089819A81AC01405E5F4F8C81882F90E0BD
:1011E000BC01660F771F660F771F660F771FFB0125
:1011F000E81BF90BCF01840F951FFC014481558139
:1012000080E092E061E0F90119952496CDBFDEBF40
:10121000CF91DF91FF91EF91BF91AF919F918F910E
:101220007F916F915F914F913F912F910F9000921D
:101230003B000F900FBE0F901F9018951F920F92BA
:101240000FB60F9200903B000F9211242F933F9303
:101250004F935F936F937F938F939F93AF93BF93BE
:10126000EF93FF93DF93CF9300D00F92CDB7DEB70C
:10127000209105223091062280E092E089839A83B2
:1012800082E08B831C828B81882F90E0837090702A
:10129000009739F48C818E5F8C838B81869586953F
:1012A0008B838B81882F90E081709070009719F468
:1012B0008C818F5F8C8389819A81AC01405E5F4F06
:1012C0008C81882F90E0BC01660F771F660F771F17
:1012D000660F771FFB01E81BF90BCF01840F951FE9
:1012E000FC014481558180E092E062E0F9011995AA
:1012F0002496CDBFDEBFCF91DF91FF91EF91BF91DB
:10130000AF919F918F917F916F915F914F913F919D
:101310002F910F9000923B000F900FBE0F901F90E7
:1013200018951F920F920FB60F9200903B000F92EC
:1013300011242F933F934F935F936F937F938F93DA
:101340009F93AF93BF93EF93FF93DF93CF9300D01F
:101350000F92CDB7DEB7209105223091062280E0B2
:1013600092E089839A8384E08B831C828B81882F0F
:1013700090E083709070009739F48C818E5F8C833D
:101380008B81869586958B838B81882F90E08170E9
:101390009070009719F48C818F5F8C8389819A817A
:1013A000AC01405E5F4F8C81882F90E0BC01660FDE
:1013B000771F660F771F660F771FFB01E81BF90B7E
:1013C000CF01840F951FFC014481558180E092E09C
:1013D00064E0F90119952496CDBFDEBFCF91DF916E
:1013E000FF91EF91BF91AF919F918F917F916F91FD
:1013F0005F914F913F912F910F9000923B000F9082
:101400000FBE0F901F9018951F920F920FB60F925C
:1014100000903B000F9211242F933F934F935F93C3
:101420006F937F938F939F93AF93BF93EF93FF93AC
:10143000DF93CF9300D00F92CDB7DEB72091052276
:101440003091062280E092E089839A8388E08B8342
:101450001C828B81882F90E083709070009739F404
:101460008C818E5F8C838B81869586958B838B8117
:10147000882F90E081709070009719F48C818F5FB5
:101480008C8389819A81AC01405E5F4F8C81882F6B
:1014900090E0BC01660F771F660F771F660F771FFE
:1014A000FB01E81BF90BCF01840F951FFC01448160
:1014B000558180E092E068E0F90119952496CDBF4E
:1014C000DEBFCF91DF91FF91EF91BF91AF919F91DF
:1014D0008F917F916F915F914F913F912F910F90DD
:1014E00000923B000F900FBE0F901F9018951F9217
:1014F0000F920FB60F9200903B000F9211242F9382
:101500003F934F935F936F937F938F939F93AF938B
:10151000BF93EF93FF93DF93CF9300D00F92CDB79C
:10152000DEB7209108223091092280E492E089837D
:101530009A8381E08B831C828B81882F90E083705B
:101540009070009739F48C818E5F8C838B818695A7
:1015500086958B838B81882F90E0817090700097A7
:1015600019F48C818F5F8C8389819A81AC01405EF4
:101570005F4F8C81882F90E0BC01660F771F660F4C
:10158000771F660F771FFB01E81BF90BCF01840F54
:10159000951FFC014481558180E492E061E0F901EE
:1015A00019952496CDBFDEBFCF91DF91FF91EF91CA
:1015B000BF91AF919F918F917F916F915F914F916B
:1015C0003F912F910F9000923B000F900FBE0F9014
:1015D0001F9018951F920F920FB60F9200903B002C
:1015E0000F9211242F933F934F935F936F937F93A9
:1015F0008F939F93AF93BF93EF93FF93DF93CF931B
:1016000000D00F92CDB7DEB7209108223091092289
:1016100080E492E089839A8382E08B831C828B81B1
:10162000882F90E083709070009739F48C818E5FE2
:101630008C838B81869586958B838B81882F90E018
:1016400081709070009719F48C818F5F8C838981F1
:101650009A81AC01405E5F4F8C81882F90E0BC0185
:10166000660F771F660F771F660F771FFB01E81B5A
:10167000F90BCF01840F951FFC014481558180E453
:1016800092E062E0F90119952496CDBFDEBFCF91BB
:10169000DF91FF91EF91BF91AF919F918F917F91DA
:1016A0006F915F914F913F912F910F9000923B006E
:1016B0000F900FBE0F901F9018951F920F920FB6AC
:1016C0000F9200903B000F9211242F933F934F9362
:1016D0005F936F937F938F939F93AF93BF93EF939A
:1016E000FF93DF93CF9300D00F92CDB7DEB7209159
:1016F00008223091092280E492E089839A8384E071
:101700008B831C828B81882F90E083709070009770
:1017100039F48C818E5F8C838B81869586958B8343
:101720008B81882F90E081709070009719F48C81E4
:101730008F5F8C8389819A81AC01405E5F4F8C8181
:10174000882F90E0BC01660F771F660F771F660F2A
:10175000771FFB01E81BF90BCF01840F951FFC01DC
:101760004481558180E492E064E0F9011995249662
:10177000CDBFDEBFCF91DF91FF91EF91BF91AF91D0
:101780009F918F917F916F915F914F913F912F9199
:101790000F9000923B000F900FBE0F901F90189576
:1017A0001F920F920FB60F9200903B000F921124E0
:1017B0002F933F934F935F936F937F938F939F9359
:1017C000AF93BF93EF93FF93DF93CF9300D00F922C
:1017D000CDB7DEB7209108223091092280E492E053
:1017E00089839A8388E08B831C828B81882F90E089
:1017F00083709070009739F48C818E5F8C838B811D
:10180000869586958B838B81882F90E08170907070
:10181000009719F48C818F5F8C8389819A81AC0148
:10182000405E5F4F8C81882F90E0BC01660F771F70
:10183000660F771F660F771FFB01E81BF90BCF01BF
:10184000840F951FFC014481558180E492E068E09B
:10185000F90119952496CDBFDEBFCF91DF91FF919D
:10186000EF91BF91AF919F918F917F916F915F9118
:101870004F913F912F910F9000923B000F900FBE20
:101880000F901F901895DF93CF930F920F92CDB7C3
:10189000DEB789839A8389819A8122E0803092071A
:1018A00089F49091042281E0992309F080E09F5F00
:1018B000909304228823E1F081E090E062E00E94AE
:1018C000740316C089819A8122E08034920781F4E2
:1018D0009091072281E0992309F080E09F5F909327
:1018E0000722882329F082E090E062E00E947403DE
:1018F0000F900F90CF91DF910895DF93CF930F92C8
:101900000F92CDB7DEB789839A8389819A8122E0CD
:101910008030920779F480910422815080930422D0
:10192000809104228823D1F481E090E062E00E945B
:10193000970314C089819A8122E08034920771F460
:10194000809107228150809307228091072288236B
:1019500029F482E090E062E00E9497030F900F90DC
:10196000CF91DF910895DF93CF9300D0CDB7DEB74D
:101970008A839B833FDB89838A819B8184DF8A8181
:101980009B81FC018081282F21608A819B81FC0141
:10199000208389813FDB81E090E05BDB2396CDBF34
:1019A000DEBFCF91DF910895DF93CF93CDB7DEB740
:1019B0002897CDBFDEBF8D839E836F8378878D810F
:1019C0009E8122E08030920731F480E090E060DB7D
:1019D00089839A830CC08D819E81E2E080349E07CA
:1019E00009F057C081E090E053DB89839A8302DBE2
:1019F0008B838D819E8147DF8D819E81FC0180815B
:101A000081708C838D819E8122E0FC0120838D81F9
:101A10009E8129813A81FC01248735878F819885B1
:101A2000FC01258136818D819E81FC01208F318FC3
:101A30008F819885FC0122818D819E81FC0122830A
:101A40008F819885FC0124818D819E81FC012483F6
:101A50008F819885FC0123818D819E81FC012383E8
:101A60008F819885FC0121818D819E81FC012183DC
:101A70008F819885FC0190818C81292F282B8D8165
:101A80009E81FC0120838D819E8137DF8B81C2DAAC
:101A900001C000002896CDBFDEBFCF91DF91089531
:101AA000DF93CF93CDB7DEB72597CDBFDEBF8A8357
:101AB0009B836C837D839EDA89838A819B81E3DEAD
:101AC0008A819B81FC018081282F207C8C819D81D3
:101AD000FC0120838A819B81FC01208D318D8C81CA
:101AE0009D81FC01258336838A819B81FC012281B3
:101AF0008C819D81FC0122838A819B81FC01248150
:101B00008C819D81FC0124838A819B81FC0123813E
:101B10008C819D81FC0123838A819B81FC01218131
:101B20008C819D81FC0121838A819B81E6DE8981F4
:101B300071DA2596CDBFDEBFCF91DF910895DF9397
:101B4000CF93CDB7DEB72C97CDBFDEBF88879987FF
:101B50006A874B875C87888599858C839D838A8576
:101B60008E831F828E81882F90E083709070009703
:101B700039F48F818E5F8F838E81869586958E83D3
:101B80008E81882F90E081709070009719F48F817A
:101B90008F5F8F838C819D819C01205E3F4F8F8161
:101BA000882F90E0AC01440F551F440F551F440F80
:101BB000551FBA01681B790BCB01820F931F8983D4
:101BC0009A8318DA8B83888599855DDE8B859C8561
:101BD000FC01208189819A81FC0120838B859C8571
:101BE000FC01228189819A81FC0122838B859C855D
:101BF000FC01218189819A81FC0121838885998555
:101C00007CDE8B8107DA2C96CDBFDEBFCF91DF91D2
:101C10000895DF93CF93CDB7DEB72C97CDBFDEBF4E
:101C2000888799876A874B875C87888599858C83A5
:101C30009D838A858E831F828E81882F90E083709A
:101C40009070009739F48F818E5F8F838E81869597
:101C500086958E838E81882F90E08170907000979A
:101C600019F48F818F5F8F838C819D819C01205E11
:101C70003F4F8F81882F90E0AC01440F551F440FD8
:101C8000551F440F551FBA01681B790BCB01820FFA
:101C9000931F89839A83AED98B8388859985F3DDD9
:101CA00089819A81FC0120818B859C85FC012083A0
:101CB00089819A81FC0122818B859C85FC0122838C
:101CC00089819A81FC0121818B859C85FC0121837E
:101CD0008885998512DE8B819DD92C96CDBFDEBF7C
:101CE000CF91DF910895DF93CF93CDB7DEB72597DE
:101CF000CDBFDEBF8A839B836C837D837BD9898341
:101D00008A819B8122E08030920739F48C819D8109
:101D100080930522909306220CC08A819B8122E049
:101D20008034920731F48C819D81809308229093B6
:101D3000092289816FD92596CDBFDEBFCF91DF9172
:101D40000895DF93CF9300D000D0CDB7DEB78A835C
:101D50009B836C834D835E8319821EC08C81882F88
:101D600090E02981222F30E0022E02C095958795C0
:101D70000A94E2F781709070882359F02A813B81A0
:101D80008981882F90E04096820F931F2D81FC015E
:101D9000208389818F5F898389818830F8F28D81E2
:101DA0009E81807091700097D1F08D819E818070AE
:101DB0009270009739F08A819B8105962C81FC01F5
:101DC000208306C08A819B8106962C81FC0120839A
:101DD0008A819B8101962C81FC01208306C08A8127
:101DE0009B8102962C81FC0120832696CDBFDEBF0D
:101DF000CF91DF9108954091CA01E62FF72F80938C
:101E0000CA0184914093CA010895DF93CF930F9242
:101E10000F92CDB7DEB789839A8389819A81FC01BD
:101E20008481282F206189819A81FC0124830F906D
:101E30000F90CF91DF910895DF93CF930F920F9280
:101E4000CDB7DEB789839A8389819A81FC01848129
:101E5000282F286089819A81FC0124830F900F909C
:101E6000CF91DF910895DF93CF9300D00F92CDB73C
:101E7000DEB789839A836B837C8389819A81FC0195
:101E80008581982F9F738B81292F282B89819A8197
:101E9000FC0125832496CDBFDEBFCF91DF9108954D
:101EA000DF93CF930F92CDB7DEB789838981869573
:101EB00086958695882F90E0C096880F991F829509
:101EC0009295907F9827807F98270F90CF91DF91F0
:101ED0000895DF93CF930F92CDB7DEB789838981C1
:101EE000882F90E09C012770307081E090E0022EF6
:101EF00002C0880F991F0A94E2F70F90CF91DF91EB
:101F00000895DF93CF93CDB7DEB780E894E8AEE1D4
:101F1000B0E0BC01CD01CF91DF910895DF93CF9365
:101F20000F92CDB7DEB71982ECDFDC01CB0129813E
:101F3000222F30E0022E04C0B695A795979587957D
:101F40000A94D2F7BC01CD010F90CF91DF91089593
:101F5000DF93CF93CDB7DEB7E1DFDC01CB01BC016E
:101F6000CD01CF91DF910895DF93CF93CDB7DEB749
:101F7000EFDFDC01CB01BC01CD01CF91DF910895F2
:101F8000DF93CF930F920F92CDB7DEB789839A83F9
:101F900089819A8128E0803A920729F483E090E0D1
:101FA00060E10E94740389819A8128E0803B920756
:101FB00029F483E090E060E20E94740389819A81B1
:101FC00029E0803A920729F484E090E060E10E94E1
:101FD000740389819A8129E0803B920729F484E087
:101FE00090E060E20E94740389819A812AE0803A3D
:101FF000920729F485E090E060E10E9474038981F2
:102000009A812BE0803A920729F486E090E060E123
:102010000E9474030F900F90CF91DF910895CF929B
:10202000DF92EF92FF920F931F93DF93CF93CDB781
:10203000DEB72597CDBFDEBF8A839B836C837D830C
:102040008A819B819DDF8A819B8160EC70E00BDF40
:102050008C819D81FC018481813031F08C819D8156
:10206000FC018481833059F48A819B81FC01858144
:10207000282F22608A819B81FC0125830AC08A81E6
:102080009B81FC018581282F2D7F8A819B81FC010A
:1020900025838C819D81FC018481823039F08C8183
:1020A0009D81FC018481833009F072C08A819B810B
:1020B000F8E0803A9F0769F481E189838981F0DE45
:1020C0008C01898106DF282FC801622F40E453E08C
:1020D00038DE8A819B8128E0803B920769F485E1A4
:1020E00089838981DDDE8C018981F3DE282FC80197
:1020F000622F40E453E025DE8A819B81E9E0803A4B
:102100009E0769F489E189838981CADE8C0189810E
:10211000E0DE282FC801622F40E453E012DE8A81FE
:102120009B81F9E0803B9F0769F48DE18983898178
:10213000B7DE8C018981CDDE282FC801622F40E4F3
:1021400053E0FFDD8A819B812AE0803A920769F49F
:1021500081E289838981A4DE8C018981BADE282FFE
:10216000C801622F40E453E0ECDD8A819B81EBE003
:10217000803A9E0769F489E28983898191DE8C0126
:102180008981A7DE282FC801622F40E453E0D9DD02
:102190008C819D81FC01C080D180E280F380E4DEEF
:1021A0008B019C018A819B81B701A60112D08A8193
:1021B0009B8142DE8A819B8128DE2596CDBFDEBFD2
:1021C000CF91DF911F910F91FF90EF90DF90CF9013
:1021D00008950F931F93DF93CF93CDB7DEB72C975E
:1021E000CDBFDEBF8B839C834D835E836F837887F7
:1021F00009871A872B873C8789859A85AB85BC859B
:10220000880F991FAA1FBB1F2D813E814F815885C2
:10221000220F331F441F551FBC01CD019CD5DA018D
:10222000C9010196A11DB11DB695A79597958795F2
:10223000019789839A8389819A81892F9927282FE9
:102240002F708B819C81FC01278329818B819C814C
:10225000FC0126832C96CDBFDEBFCF91DF911F916D
:102260000F910895DF93CF930F92CDB7DEB78FE331
:1022700090E0FC0180818983F89489810F90CF914F
:10228000DF910895DF93CF930F92CDB7DEB78983A7
:102290008FE390E02981FC0120830F90CF91DF91A3
:1022A0000895DF93CF930F92CDB7DEB789838981ED
:1022B000869586958695882F90E0C096880F991F01
:1022C00082959295907F9827807F98270F90CF9145
:1022D000DF910895DF93CF930F92CDB7DEB7898357
:1022E0008981882F90E09C012770307081E090E018
:1022F000022E02C0880F991F0A94E2F70F90CF9127
:10230000DF910895DF93CF9300D00F92CDB7DEB762
:102310008B836C838B81C5DF89839A838C8188232F
:1023200041F08B81D7DF282F89819A81FC01258399
:1023300007C08B81CFDF282F89819A81FC012683FA
:102340002496CDBFDEBFCF91DF910895DF93CF9369
:1023500000D0CDB7DEB78B838B81A3DF89839A83CF
:102360008B81B8DF282F89819A81FC0125832396F0
:10237000CDBFDEBFCF91DF9108950F931F93DF9301
:10238000CF9300D0CDB7DEB78B838B818ADF898373
:102390009A8389819A81FC018085882F90E08C0145
:1023A000009510958B8196DF882F90E080239123F4
:1023B00021E0009709F420E0822F2396CDBFDEBFF5
:1023C000CF91DF911F910F910895DF93CF93CDB7F8
:1023D000DEB780E894E8AEE1B0E0BC01CD01CF917A
:1023E000DF910895DF93CF930F92CDB7DEB71982B7
:1023F000ECDFDC01CB012981222F30E0022E04C06A
:10240000B695A795979587950A94D2F7BC01CD010B
:102410000F90CF91DF910895DF93CF93CDB7DEB7C3
:10242000E1DFDC01CB01BC01CD01CF91DF9108954B
:10243000DF93CF93CDB7DEB7EFDFDC01CB01BC017B
:10244000CD01CF91DF910895DF93CF9300D00F920C
:10245000CDB7DEB78A839B836C8304DF89838A814F
:102460009B81FC018081282F8C81882F90E0880F30
:10247000991F880F991F822B282F8A819B81FC012D
:1024800020838981FFDE2496CDBFDEBFCF91DF910F
:102490000895DF93CF93CDB7DEB72D97CDBFDEBFC5
:1024A000888799874A875B876C877D87C1DFDC01D6
:1024B000CB018A839B83AC83BD838A819B81AC8162
:1024C000BD812A853B854C855D85BC01CD0143D40A
:1024D000DA01C9018E839F838E819F8185309105AA
:1024E00010F4198233C08E819F818930910518F4D0
:1024F00081E089832BC08E819F818131910518F401
:1025000082E0898323C08E819F818132910518F4F6
:1025100083E089831BC08E819F818134910518F4EB
:1025200084E0898313C08E819F818138910518F4DE
:1025300085E089830BC08E819F8121E081309207E5
:1025400018F486E0898302C087E0898388859985AD
:102550002981FC0124832D96CDBFDEBFCF91DF9171
:102560000895DF93CF93CDB7DEB72897CDBFDEBFF9
:1025700089839A836B837C834D835E832F83388723
:1025800089819A81FC018181282F297E89819A8104
:10259000FC01218389819A81FC0191812D818B81AC
:1025A000822B292F282B89819A81FC012183898103
:1025B0009A81FC018281282F2F7889819A81FC01E0
:1025C000228389819A81FC0192818F81292F282B76
:1025D00089819A81FC0122832896CDBFDEBFCF91ED
:1025E000DF910895DF93CF9300D000D0CDB7DEB751
:1025F00089839A836B837C834D832E838B819C811B
:102600008230910509F18330910530F4009769F02B
:1026100081309105A9F19CC08330910509F446C031
:102620008430910509F46BC093C089819A81FC01C3
:102630008181282F277F89819A81FC0121838981CB
:102640009A81FC01138284C089819A81FC01818175
:10265000282F277F89819A81FC0121838E81882FF1
:1026600090E0880F991F880F991F880F991F982F46
:102670008D81892B282F89819A81FC01238368C051
:1026800089819A81FC018181282F286089819A8122
:10269000FC0121838D818150282F2295220F220F4A
:1026A000207C89819A81FC01238352C089819A818F
:1026B000FC018181282F277F89819A81FC01218358
:1026C0008D81882F90E00197002496958795079437
:1026D000969587950794982F802D282F8E81882F87
:1026E00090E0880F991F880F991F880F991F822BE0
:1026F0008560282F89819A81FC01238329C08981E3
:102700009A81FC018181282F277F89819A81FC0190
:1027100021838D81882F90E00197002496958795DD
:102720000794969587950794982F802D282F8E8152
:10273000882F90E0880F991F880F991F880F991F85
:10274000822B8660282F89819A81FC0123830000D7
:102750002696CDBFDEBFCF91DF910895DF93CF9353
:102760000F92CDB7DEB789838981882F90E08830BA
:102770009105E9F08930910554F48230910599F082
:102780008430910591F08130910559F018C0803264
:10279000910589F08034910581F08031910549F0EF
:1027A0000EC080E00DC084E00BC088E009C08CE062
:1027B00007C080E105C084E103C088E101C080E07A
:1027C0000F90CF91DF910895DF93CF93CDB7DEB710
:1027D0002797CDBFDEBF89839A836B837C834D832C
:1027E0005E832F838B819C818830910578F089816D
:1027F0009A81FC0110828B818850282F220F220F92
:10280000220F89819A81FC01218340C08D819E81A4
:102810008830910579F489819A8121E0FC01208337
:102820008B81282F220F220F220F89819A81FC0190
:1028300021832CC08D819E818430910590F4898103
:102840009A8122E0FC0120838B81982F990F990FA8
:10285000990F8D81292F282B89819A81FC01218351
:1028600015C08F817BDF282F236089819A81FC012D
:1028700020838B81982F990F990F990F8D81845008
:10288000292F282B89819A81FC0121832796CDBF8E
:10289000DEBFCF91DF910895DF93CF9300D00F92E9
:1028A000CDB7DEB789839A836B837C8389819A81D4
:1028B000FC018281282F237F89819A81FC01228358
:1028C00089819A81FC0192818B81292F282B898112
:1028D0009A81FC0122832496CDBFDEBFCF91DF9188
:1028E0000895DF93CF930F920F92CDB7DEB7898310
:1028F0009A8389819A81FC018281282F2C7F89818A
:102900009A81FC01228389819A81FC018281282F8E
:10291000216089819A81FC0122830F900F90CF91D1
:10292000DF910895DF93CF93CDB7DEB780EA90E0D3
:1029300027E0FC012283CF91DF910895DF93CF93AD
:102940000F920F92CDB7DEB789839A8389819A81DE
:10295000FC018181882F90E08072907021E00097C7
:1029600009F420E0822F0F900F90CF91DF9108950E
:10297000DF93CF930F920F92CDB7DEB789839A83FF
:1029800089819A81FC018181882F90E08074907008
:1029900021E0009709F420E0822F0F900F90CF9153
:1029A000DF910895DF93CF930F920F92CDB7DEB7EB
:1029B00089839A8389819A8120E4FC0121830F9085
:1029C0000F90CF91DF910895DF93CF9300D0CDB7D3
:1029D000DEB789839A836B8389819A812B81FC017D
:1029E00020832396CDBFDEBFCF91DF910895DF9383
:1029F000CF930F920F92CDB7DEB789839A838981E7
:102A00009A81FC0180810F900F90CF91DF91089502
:102A1000DF93CF9300D0CDB7DEB789839A836B83E2
:102A2000000089819A818ADF982F81E08927882395
:102A3000C1F789819A816B81C7DF000089819A8102
:102A400097DF982F81E089278823C1F789819A81B0
:102A5000A9DF89819A81CBDF2396CDBFDEBFCF91DD
:102A6000DF910895DF93CF930F92CDB7DEB78983BF
:102A70008BE260E047DC88E160E044DC80EA99E0DA
:102A80006981C6DF8BE261E03DDC0F90CF91DF9181
:102A90000895DF93CF930F92CDB7DEB789838981F5
:102AA0008E3110F48EE189838981893210F088E2B9
:102AB000898381E8D7DF898180958F73D3DF89810E
:102AC0000F90CF91DF9108950F931F93DF93CF93D2
:102AD000CDB7DEB780E060E040E820E200E010E043
:102AE0000E94C206CF91DF911F910F910895DF934D
:102AF000CF93CDB7DEB7E8DF10921622CF91DF91EA
:102B00000895DF93CF93CDB7DEB7DEDFCF91DF91AE
:102B10000895DF93CF93CDB7DEB72597CDBFDEBF46
:102B200089839A836B834C835D832091002030914D
:102B300001208C819D81B901FAD09B01C90190E2ED
:102B4000292F281B822F8093142289819A816B81DF
:102B50007BDC2596CDBFDEBFCF91DF910895DF935B
:102B6000CF93CDB7DEB70E94070584E2EFDB8EE19D
:102B700090DFCF91DF910895DF93CF93CDB7DEB78C
:102B80002AE032E280E092E0B9010E94500D21E19A
:102B900032E280E092E061E0A9013BD88AE092E273
:102BA00060E070E040E050E020E030E0DADC8AE015
:102BB00092E240E45DE063E070E06BDC8AE092E288
:102BC00060E070E040E020E00DDD2AE032E280E0ED
:102BD00092E0B9010E94D40C29E835E180E092E04E
:102BE000B90181D881E192E260E070E048E050E014
:102BF00021E0EADD81E192E260E070E04DDE81E11A
:102C000092E26FDE21E132E280E092E061E0A90130
:102C10000E949F0DCF91DF9108950F931F93DF9333
:102C2000CF93CDB7DEB78091162260E046E020E278
:102C300000E010E00E94C2068091162290911422BA
:102C4000692F41E00E942C0580911622882344F0D0
:102C5000809116228F5F809316228091162201C0E8
:102C600080E080931622CF91DF911F910F910895FC
:102C7000DF93CF93CDB7DEB7CF91DF910895DF9388
:102C8000CF93CDB7DEB785E278DB882319F01092B9
:102C900015222DDF89E271DB882321F081E080930A
:102CA00015222FDFCF91DF910895DF93CF93CDB71A
:102CB000DEB70E94C7070E94530334DE78944FDFCB
:102CC0005BDF80E092E00E94B30C80E092E061E084
:102CD000BBDB01C00000D3DF80911522882311F4F3
:102CE0009CDFF9CF809115228130A1F7C1DFF3CFAE
:102CF000629FD001739FF001829FE00DF11D649FE0
:102D0000E00DF11D929FF00D839FF00D749FF00D6B
:102D1000659FF00D9927729FB00DE11DF91F639F0C
:102D2000B00DE11DF91FBD01CF0111240895AA1BAB
:102D3000BB1B51E107C0AA1FBB1FA617B70710F0A6
:102D4000A61BB70B881F991F5A95A9F780959095D8
:102D5000BC01CD010895A1E21A2EAA1BBB1BFD01E7
:102D60000DC0AA1FBB1FEE1FFF1FA217B307E4076A
:102D7000F50720F0A21BB30BE40BF50B661F771FC2
:102D8000881F991F1A9469F76095709580959095A2
:0E2D90009B01AC01BD01CF010895F894FFCF67
:022D9E008000B3
:00000001FF
