:10000000FDC000001AC1000018C1000016C10000A8
:1000100014C1000012C1000010C100000EC1000098
:100020000CC100000AC1000008C1000006C10000A8
:1000300004C1000002C1000000C10000FEC00000B9
:10004000FCC00000FAC00000F8C00000F6C00000CC
:10005000F4C00000F2C00000F0C00000EEC00000DC
:10006000ECC00000EAC00000E8C00000E6C00000EC
:10007000E4C00000E2C00000E0C00000DEC00000FC
:10008000DCC00000DAC00000D8C00000D6C000000C
:10009000D4C00000D2C00000D0C00000D8C400000E
:1000A00008C5000038C5000068C50000C6C00000D3
:1000B000C4C00000C2C00000C0C00000BEC000003C
:1000C000BCC00000BAC00000B8C00000B6C000004C
:1000D000B4C00000B2C00000B0C00000AEC000005C
:1000E000ACC00000AAC00000A8C00000A6C000006C
:1000F000A4C00000A2C00000A0C000009EC000007C
:100100009CC000009AC0000098C0000096C000008B
:1001100094C0000092C0000090C00000D0C3000056
:1001200000C4000030C4000060C4000086C00000AD
:1001300084C0000082C0000080C000007EC00000BB
:100140007CC000007AC0000078C0000076C00000CB
:1001500074C0000072C0000070C000006EC00000DB
:100160006CC000006AC0000068C0000066C00000EB
:1001700064C0000062C0000060C000005EC00000FB
:100180005CC000005AC0000058C0000056C000000B
:1001900054C0000052C0000050C000004EC000001B
:1001A0004CC000004AC0000048C0000046C000002B
:1001B00044C0000042C0000040C000003EC000003B
:1001C0003CC000003AC0000038C0000036C000004B
:1001D00034C0000032C0000030C000002EC000005B
:1001E0002CC000002AC0000028C0000026C000006B
:1001F00024C0000022C0000020C0000011241FBE47
:10020000CFEFDFE5DEBFCDBF00E00CBF10E2A0E026
:10021000B0E2E6EAF1E100E00BBF02C007900D9208
:10022000A030B107D9F712E2A0E0B0E201C01D9200
:10023000A931B107E1F72DD7B4C7E2CEE82FE69593
:10024000E695E695F0E0F09695E0EE0FFF1F9A95A3
:10025000E1F790E0662359F08770907021E030E07C
:1002600002C0220F331F8A95E2F725830895877015
:10027000907021E030E002C0220F331F8A95E2F730
:10028000268308951F93182F8BE260E0D7DF88E163
:1002900060E0D4DF8091A10985FFFCCF1093A00915
:1002A0008091A10986FFFCCF80E4E0EAF9E0818338
:1002B0008091A0098BE261E0C1DF1F910895CF9288
:1002C000DF92EF92FF920F931F93DF93CF930F92E2
:1002D0000F92CDB7DEB782E0898383E060E0AEDFC6
:1002E0008981982F915099838823D1F782E089835F
:1002F00083E061E0A3DF8981982F9150998388235F
:10030000D1F78BE28A8380EA99E0DAD180EA99E03A
:10031000BE016E5F7F4F43E000E412E42FE030E067
:10032000CC24DD247601FAD188E160E087DF80EA21
:10033000A9DF86EAA7DF88ECA5DF82EAA3DF8FE2E8
:10034000A1DF88EF9FDF80E09DDF81E29BDF81E816
:1003500099DF87E197DF8FEA95DF0F900F90CF91BC
:10036000DF911F910F91FF90EF90DF90CF90089554
:100370008FEF809370008093710080937200809360
:1003800073008093740080937500809376000895C5
:10039000FC019FB7F894E059FF4F60958081862358
:1003A00080839FBF0895FC019FB7F894E059FF4FE9
:1003B0008081862B80839FBF0895E82FE695E69580
:1003C000E695F0E0F09695E0EE0FFF1F9A95E1F7C5
:1003D00090E0662359F08770907021E030E002C011
:1003E000220F331F8A95E2F7258308958770907056
:1003F00021E030E002C0220F331F8A95E2F7268306
:1004000008951F93182F8BE260E0D7DF88E160E04A
:10041000D4DF8091A10985FFFCCF1093A0098091C2
:10042000A10986FFFCCF80E4E0EAF9E081838091B6
:10043000A0098BE261E0C1DF1F9108951F93182F7F
:100440008BE260E0BADF88E161E0B7DF8091A1096B
:1004500085FFFCCF1093A0098091A10986FFFCCFF6
:1004600080E4E0EAF9E081838091A00988E160E01E
:10047000A4DF8BE261E0A1DF1F9108958F70806B94
:10048000C0CF1F93182F8F7782958F708061B9DF4F
:10049000812F8F70B6DF1F910895FF920F931F93E6
:1004A000F82E062F142F6CD08F2DE8DF802FE9DF78
:1004B000812FC4DF1F910F91FF9008950F931F9319
:1004C00080E090E258D0FBDE80E49BDF10E00AC0C1
:1004D000812F602F40E0E1DF0F5F0038C9F71F5F19
:1004E000143011F000E0F4CF1F910F910895FF92A6
:1004F0000F931F93DF93CF930F92CDB7DEB7182FD3
:1005000087FD30C0603270F5062F0695069506957A
:10051000202F30E0309521953F4F53E0220F331FBD
:100520005A95E1F7260F311DE1E0F0E002C0EE0F31
:10053000FF1F2A95E2F7FE2E802F612F498330D0CE
:10054000482F9981913029F0913028F0923039F478
:1005500005C04F2904C0F0944F2101C04F25802FC2
:10056000612F9BDF0F90CF91DF911F910F91FF9033
:10057000089516C008958093002290930122089553
:1005800090E09695982F882797958795860F911DCF
:10059000E0910022F0910122E80FF91F40830895B5
:1005A00090E09695982F882797958795860F911DAF
:1005B000E0910022F0910122E80FF91F8081089557
:1005C000DF92EF92FF920F931F93082F142FE82FC3
:1005D000F0E0E40FF11DE138F10514F010E8181B0C
:1005E000112309F44CC0F62EF694F694F694EF2DF0
:1005F000F0E0F095E195FF4F83E0EE0FFF1F8A9545
:10060000E1F7E60FF11D61E070E002C0660F771FB1
:10061000EA95E2F7E62E2130310539F02130310537
:1006200090F02230310559F51DC01150D12ED00E59
:100630008F2D6D2D9EDF482F4E298F2D6D2D2DDF97
:10064000112399F71CC0E0941150D12ED00E8F2D9C
:100650006D2D8FDF482F4E218F2D6D2D1EDF112325
:1006600099F70DC01150D12ED00E8F2D6D2D81DF39
:10067000482F4E258F2D6D2D10DF112399F71F91D7
:100680000F91FF90EF90DF900895CF92DF92EF925D
:10069000FF920F931F93C82ED62EE42EF22EFF202A
:1006A00041F0FA946F2D6D0D8C2D4E2D980188DF41
:1006B000F6CF1F910F91FF90EF90DF90CF900895AC
:1006C00028E0803A920719F483E090E01CC028E00B
:1006D000803B920719F483E090E00DC029E0803A56
:1006E000920719F484E090E00EC029E0803B920765
:1006F00021F484E090E060E207C02AE0803A9207AB
:1007000021F485E090E060E143CE2BE0803A92074F
:1007100021F486E090E060E13BCE08950F931F93B3
:10072000DF93CF9300D000D0CDB7DEB709831A8313
:100730002B833C834D831E82BE016F5F7F4FEAD3C4
:100740002696CDBFDEBFCF91DF911F910F91089507
:10075000AB01282F26952695269530E0205D3F4F4A
:10076000877061E070E002C0660F771F8A95E2F73C
:10077000C90125E0880F991F2A95E1F730C388E762
:1007800060E073E0E5DF89E760E073E0E1DF8CE1E2
:1007900060E073E0DDDF8DE160E471E0D9DF85E2E8
:1007A0006BE170E0D5DF89E160E073E0D1DF8BE1E0
:1007B00060E073E0CDDF8BE260E073E0C9DF88E1E9
:1007C00060E073E0C5DF83E060E073E0C1DF84E2F6
:1007D00060E071E0BDCF22E08030920761F480914B
:1007E0000622982F9F5F909306228823A1F481E030
:1007F00090E062E0CDCD22E08034920761F48091F8
:100800000722982F9F5F90930722882321F482E08C
:1008100090E062E0BDCD089522E08030920759F467
:1008200080910622815080930622882399F481E0EA
:1008300090E062E0B8CD22E08034920759F48091D4
:100840000722815080930722882321F482E090E0E0
:1008500062E0A9CD0895682F82E070E0EAC2EF92CD
:10086000FF92CF93DF938130910571F08130910534
:1008700020F082309105D9F40EC081E2ECDF982F90
:1008800080E0EC0180E20DC085E2E5DF982F80E09A
:10089000EC0184E206C08FE2DEDF982F80E0EC01FD
:1008A0008EE2D9DF282F30E02C2B3D2B02C020E038
:1008B00030E0C901DF91CF91FF90EF9008951F9232
:1008C0000F920FB60F920BB60F9211242F933F93F6
:1008D0004F935F936F937F938F939F93AF93BF9348
:1008E000EF93FF93E0E0F2E044A155A1E0910222F2
:1008F000F091032280E092E061E01995FF91EF9181
:10090000BF91AF919F918F917F916F915F914F9127
:100910003F912F910F900BBE0F900FBE0F901F9025
:1009200018951F920F920FB60F920BB60F921124CB
:100930002F933F934F935F936F937F938F939F93E7
:10094000AF93BF93EF93FF93E7E2F2E044815581C9
:10095000E0910222F091032280E092E062E019959A
:10096000FF91EF91BF91AF919F918F917F916F9187
:100970005F914F913F912F910F900BBE0F900FBE43
:100980000F901F9018951F920F920FB60F920BB6F3
:100990000F9211242F933F934F935F936F937F9305
:1009A0008F939F93AF93BF93EF93FF93EEE2F2E0A9
:1009B00044815581E0910222F091032280E092E08F
:1009C00064E01995FF91EF91BF91AF919F918F9145
:1009D0007F916F915F914F913F912F910F900BBE3F
:1009E0000F900FBE0F901F9018951F920F920FB689
:1009F0000F920BB60F9211242F933F934F935F9357
:100A00006F937F938F939F93AF93BF93EF93FF93D6
:100A1000E5E3F2E044815581E0910222F091032266
:100A200080E092E068E01995FF91EF91BF91AF915E
:100A30009F918F917F916F915F914F913F912F91F6
:100A40000F900BBE0F900FBE0F901F9018951F9226
:100A50000F920FB60F920BB60F9211242F933F9364
:100A60004F935F936F937F938F939F93AF93BF93B6
:100A7000EF93FF93E0E4F2E044A155A1E09104225A
:100A8000F091052280E492E061E01995FF91EF91E9
:100A9000BF91AF919F918F917F916F915F914F9196
:100AA0003F912F910F900BBE0F900FBE0F901F9094
:100AB00018951F920F920FB60F920BB60F9211243A
:100AC0002F933F934F935F936F937F938F939F9356
:100AD000AF93BF93EF93FF93E7E6F2E04481558134
:100AE000E0910422F091052280E492E062E0199501
:100AF000FF91EF91BF91AF919F918F917F916F91F6
:100B00005F914F913F912F910F900BBE0F900FBEB1
:100B10000F901F9018951F920F920FB60F920BB661
:100B20000F9211242F933F934F935F936F937F9373
:100B30008F939F93AF93BF93EF93FF93EEE6F2E013
:100B400044815581E0910422F091052280E492E0F5
:100B500064E01995FF91EF91BF91AF919F918F91B3
:100B60007F916F915F914F913F912F910F900BBEAD
:100B70000F900FBE0F901F9018951F920F920FB6F7
:100B80000F920BB60F9211242F933F934F935F93C5
:100B90006F937F938F939F93AF93BF93EF93FF9345
:100BA000E5E7F2E044815581E0910422F0910522CD
:100BB00080E492E068E01995FF91EF91BF91AF91C9
:100BC0009F918F917F916F915F914F913F912F9165
:100BD0000F900BBE0F900FBE0F901F9018951F9394
:100BE000CF93DF93EC011FB7F894F5DD8881816026
:100BF00088831FBF9FB7F894809114228F5F8093E2
:100C000014229FBFDF91CF911F910895DF92EF9241
:100C1000FF920F931F93CF93DF93EC018B0182E040
:100C2000C030D80719F480E090E006C0E2E0C0349C
:100C3000DE0709F581E090E012DE7C01DFB6F89472
:100C4000CE01C9DD288182E08883EC86FD86F8012B
:100C500085819681888F998F82818A8384818C8314
:100C600083818B838181898321708081282B2883D4
:100C7000CE01D2DDDFBEDF91CF911F910F91FF90AA
:100C8000EF90DF900895FF920F931F93CF93DF9320
:100C9000EC018B01FFB6F8949EDD8881807CF80121
:100CA0008083888D998D858396838A8182838C81C8
:100CB00084838B81838389818183CE01ADDDFFBEF7
:100CC000DF91CF911F910F91FF900895DF92EF92E6
:100CD000FF920F931F93CF93DF93EC017A01862F3E
:100CE00090E083709070009721F46695669582E09D
:100CF00001C080E060FF8F5F8E01005E1F4F97E0B4
:100D0000899FC0011124080F191FDFB6F894CE0186
:100D100062DDF7018081F8018083F7018281F801AB
:100D20008283F7018181F8018183CE0175DDDFBE09
:100D3000DF91CF911F910F91FF90EF90DF90089579
:100D4000DF92EF92FF920F931F93CF93DF93EC010B
:100D50007A01862F90E083709070009721F4669559
:100D6000669582E001C080E060FF8F5F8E01005ECB
:100D70001F4F97E0899FC0011124080F191FDFB68C
:100D8000F894CE0128DDF8018081F7018083F80115
:100D90008281F7018283F8018181F7018183CE018D
:100DA0003BDDDFBEDF91CF911F910F91FF90EF9060
:100DB000DF9008952FB7F89432E08030930729F43C
:100DC000609302227093032208C032E080349307BC
:100DD00021F460930422709305222FBF08950F938E
:100DE0001F93CF93DF93FC01DC0180E090E0262F7E
:100DF00030E0E901082E02C0D595C7950A94E2F7C4
:100E0000C0FF03C050964C935097019611968830BE
:100E1000910579F750FF07C051FF02C0658301C0FB
:100E20006683618301C06283DF91CF911F910F912F
:100E300008954091CA01E62FF72F8093CA0184914B
:100E40004093CA010895CF93DF93EC0188E0C03A44
:100E5000D80729F483E090E060E19ADA12C088E0D4
:100E6000C03BD80729F483E090E060E291DA11C03A
:100E700089E0C03AD80729F484E090E060E188DA9C
:100E80000FC089E0C03BD80721F484E090E060E225
:100E90000EC08AE0C03AD80719F485E090E006C099
:100EA0008BE0C03AD80721F486E090E060E170DA88
:100EB000DF91CF910895CF92DF92EF92FF920F933F
:100EC0001F93CF93DF93EC016A017B01C901B80145
:100ED000660F771F881F991FCC0CDD1CEE1CFF1CB2
:100EE000A70196013CD12F5F3F4F4F4F5F4F569563
:100EF00047953795279521503040832F8F708F83EA
:100F00002E83DF91CF911F910F91FF90EF90DF9093
:100F1000CF9008950F931F93CF93DF93EC018B0134
:100F200092DF8D81806C8D83F8018481813011F096
:100F3000833019F48D81826002C08D818D7F8D8315
:100F4000F801848182508230D0F5F8E0C03ADF07A2
:100F500039F480E496E062E040E453E040DF16C0FC
:100F600088E0C03BD80739F480E496E060E240E4D2
:100F700053E035DF13C0E9E0C03ADE0739F480E61C
:100F800096E062E040E453E02ADF0FC0F9E0C03BA6
:100F9000DF0721F480E696E060E20EC08AE0C03A06
:100FA000D80719F480E896E006C0EBE0C03ADE0707
:100FB00031F480EA96E062E040E453E010DFF801AB
:100FC0004081518162817381CE0100E814E82EE1F5
:100FD00030E071DF8C8188608C838C8180618C83B0
:100FE000DF91CF911F910F910895E82FE695E69537
:100FF000E695F0E0F09695E0EE0FFF1F9A95E1F789
:1010000090E0662359F08770907021E030E002C0D4
:10101000220F331F8A95E2F7258308958770907019
:1010200021E030E002C0220F331F8A95E2F72683C9
:1010300008951F93182F8BE260E0D7DF88E160E00E
:10104000D4DF8091A10985FFFCCF1093A009809186
:10105000A10986FFFCCF80E4E0EAF9E0818380917A
:10106000A0098BE261E0C1DF1F910895FC01440FEC
:10107000452F441F550B519580E2841B8093082215
:101080008FB7F8949081660F660F692B60838FBFCE
:101090000895FF920F931F9372DB6AD987E0E0EA0D
:1010A000F0E0828378940ADA80E1E0E8F6E0858374
:1010B00081E8BFDF81E2BDDF80E092E069E072E2BB
:1010C000E2DD80E092E061E040E152E239DE8091D1
:1010D0000A2290910B229F7890930B2292E090939A
:1010E0000D22817E80930A2210920C2280E092E0F1
:1010F00069E072E28BDD80E092E066E378E05ADE40
:1011000081E0809310221092112280911222807F20
:1011100081608093122280E092E061E040E152E23F
:10112000D5DD80E092E05BDD9FB7F894809100020E
:101130008460809300029FBFFF240DC08F2D60E06C
:1011400046E020E200E010E0A0DA609108228F2D56
:1011500041E0CDD9F394F7FEF1CFFF24EFCFA1E228
:101160001A2EAA1BBB1BFD010DC0AA1FBB1FEE1F21
:10117000FF1FA217B307E407F50720F0A21BB30B6C
:10118000E40BF50B661F771F881F991F1A9469F7E8
:1011900060957095809590959B01AC01BD01CF0144
:0611A0000895F894FFCF52
:00000001FF
